{
  "transactions": [
    {
      "hash": "0x6f4a0b7a6c83994efa334527b4a95322a92e9aae6fcb5c37efcce62fc3aa26b1",
      "transactionType": "CALL",
      "contractName": null,
      "contractAddress": "0xa9e4ed4183b3b3cc364cf82da7982d5abe956307",
      "function": "registerStealthMetaAddress(bytes)",
      "arguments": [
        "0x020102030405060708090a0b0c0d0e0f101112131415161718191a1b1c1d1e1f200322232425262728292a2b2c2d2e2f303132333435363738393a3b3c3d3e3f4041"
      ],
      "transaction": {
        "from": "0x25f75573799a3aa37760d6be4b862aca70599b49",
        "to": "0xa9e4ed4183b3b3cc364cf82da7982d5abe956307",
        "gas": "0x28e1d",
        "value": "0x0",
        "input": "0xefe57cef00000000000000000000000000000000000000000000000000000000000000200000000000000000000000000000000000000000000000000000000000000042020102030405060708090a0b0c0d0e0f101112131415161718191a1b1c1d1e1f200322232425262728292a2b2c2d2e2f303132333435363738393a3b3c3d3e3f4041000000000000000000000000000000000000000000000000000000000000",
        "nonce": "0x4",
        "chainId": "0x515"
      },
      "additionalContracts": [],
      "isFixedGasLimit": false
    },
    {
      "hash": "0x783837e9ee01398a786dbefc6b4216b993e89690602a4c50533d6fb4e4692d1f",
      "transactionType": "CALL",
      "contractName": null,
      "contractAddress": "0xa9e4ed4183b3b3cc364cf82da7982d5abe956307",
      "function": "generateStealthAddress(bytes)",
      "arguments": [
        "0x020102030405060708090a0b0c0d0e0f101112131415161718191a1b1c1d1e1f200322232425262728292a2b2c2d2e2f303132333435363738393a3b3c3d3e3f4041"
      ],
      "transaction": {
        "from": "0x25f75573799a3aa37760d6be4b862aca70599b49",
        "to": "0xa9e4ed4183b3b3cc364cf82da7982d5abe956307",
        "gas": "0xfd5f",
        "value": "0x0",
        "input": "0xe111c63300000000000000000000000000000000000000000000000000000000000000200000000000000000000000000000000000000000000000000000000000000042020102030405060708090a0b0c0d0e0f101112131415161718191a1b1c1d1e1f200322232425262728292a2b2c2d2e2f303132333435363738393a3b3c3d3e3f4041000000000000000000000000000000000000000000000000000000000000",
        "nonce": "0x5",
        "chainId": "0x515"
      },
      "additionalContracts": [],
      "isFixedGasLimit": false
    },
    {
      "hash": "0x53d300183b30e1abf82e57ca504e72533469f91269a7d8697238d9c83e5e29d9",
      "transactionType": "CALL",
      "contractName": null,
      "contractAddress": "0x42013a72753f6ec28e27582d4cdb8425b44fd311",
      "function": "announce(uint256,address,bytes,bytes)",
      "arguments": [
        "1",
        "0xbB9149F6a9F685e58B008626293788FaFDc879b9",
        "0x02e9021e5fdda99334a2a44d6aab4c6357e6d69800ebdd8a63488e5b2e0fa91929",
        "0xf200000000000000000000000000000000000000000000000000000000000000000000000000000000000000000de0b6b3a7640000"
      ],
      "transaction": {
        "from": "0x25f75573799a3aa37760d6be4b862aca70599b49",
        "to": "0x42013a72753f6ec28e27582d4cdb8425b44fd311",
        "gas": "0x9f3e",
        "value": "0x0",
        "input": "0x4d1f95830000000000000000000000000000000000000000000000000000000000000001000000000000000000000000bb9149f6a9f685e58b008626293788fafdc879b9000000000000000000000000000000000000000000000000000000000000008000000000000000000000000000000000000000000000000000000000000000e0000000000000000000000000000000000000000000000000000000000000002102e9021e5fdda99334a2a44d6aab4c6357e6d69800ebdd8a63488e5b2e0fa91929000000000000000000000000000000000000000000000000000000000000000000000000000000000000000000000000000000000000000000000000000035f200000000000000000000000000000000000000000000000000000000000000000000000000000000000000000de0b6b3a76400000000000000000000000000",
        "nonce": "0x6",
        "chainId": "0x515"
      },
      "additionalContracts": [],
      "isFixedGasLimit": false
    }
  ],
  "receipts": [
    {
      "status": "0x1",
      "cumulativeGasUsed": "0x76bca",
      "logs": [
        {
          "address": "0xa9e4ed4183b3b3cc364cf82da7982d5abe956307",
          "topics": [
            "0x5f46098bb1cbeb11391cbaaabf96c9592c7c11c3f93041153629ba7050adab92",
            "0x00000000000000000000000025f75573799a3aa37760d6be4b862aca70599b49"
          ],
          "data": "0x00000000000000000000000000000000000000000000000000000000000000200000000000000000000000000000000000000000000000000000000000000042020102030405060708090a0b0c0d0e0f101112131415161718191a1b1c1d1e1f200322232425262728292a2b2c2d2e2f303132333435363738393a3b3c3d3e3f4041000000000000000000000000000000000000000000000000000000000000",
          "blockHash": "0x0000000000000000000000000000000000000000000000000000000000000000",
          "blockNumber": "0x291ce66",
          "blockTimestamp": "0x697f7bb2",
          "transactionHash": "0x53d300183b30e1abf82e57ca504e72533469f91269a7d8697238d9c83e5e29d9",
          "transactionIndex": "0x6",
          "logIndex": "0x3",
          "removed": false
        }
      ],
      "logsBloom": "0x00000000000000100000000000000000000000004000000000000000000000000000000000000000000000000000000000000000000000000000000002000080000000000800000000000000000000000000000000000000000000000080000000000000000000000000000000000020000000000000000000000000000000000000000000000000000000000400000000000000000000000000000000000000000000000000000000000000000000010000000000000000000000000000000000000000000000000000000000000000000000000000000000000000000000000000000000000000000000000000000000000000000000000000000000000000",
      "type": "0x2",
      "transactionHash": "0x53d300183b30e1abf82e57ca504e72533469f91269a7d8697238d9c83e5e29d9",
      "transactionIndex": "0x6",
      "blockHash": "0x0000000000000000000000000000000000000000000000000000000000000000",
      "blockNumber": "0x291ce66",
      "gasUsed": "0x1bf42",
      "effectiveGasPrice": "0x7a121",
      "blobGasUsed": "0xc670",
      "from": "0x25f75573799a3aa37760d6be4b862aca70599b49",
      "to": "0xa9e4ed4183b3b3cc364cf82da7982d5abe956307",
      "contractAddress": null,
      "daFootprintGasScalar": "0x190",
      "l1BaseFeeScalar": "0x7d0",
      "l1BlobBaseFee": "0x3469840",
      "l1BlobBaseFeeScalar": "0xdbba0",
      "l1Fee": "0x2b080aee1",
      "l1GasPrice": "0x3fab482c",
      "l1GasUsed": "0x7f3"
    },
    {
      "status": "0x1",
      "cumulativeGasUsed": "0x8233a",
      "logs": [],
      "logsBloom": "0x00000000000000000000000000000000000000000000000000000000000000000000000000000000000000000000000000000000000000000000000000000000000000000000000000000000000000000000000000000000000000000000000000000000000000000000000000000000000000000000000000000000000000000000000000000000000000000000000000000000000000000000000000000000000000000000000000000000000000000000000000000000000000000000000000000000000000000000000000000000000000000000000000000000000000000000000000000000000000000000000000000000000000000000000000000000",
      "type": "0x2",
      "transactionHash": "0x6f4a0b7a6c83994efa334527b4a95322a92e9aae6fcb5c37efcce62fc3aa26b1",
      "transactionIndex": "0x7",
      "blockHash": "0x0000000000000000000000000000000000000000000000000000000000000000",
      "blockNumber": "0x291ce66",
      "gasUsed": "0xb770",
      "effectiveGasPrice": "0x7a121",
      "blobGasUsed": "0xc4e0",
      "from": "0x25f75573799a3aa37760d6be4b862aca70599b49",
      "to": "0xa9e4ed4183b3b3cc364cf82da7982d5abe956307",
      "contractAddress": null,
      "daFootprintGasScalar": "0x190",
      "l1BaseFeeScalar": "0x7d0",
      "l1BlobBaseFee": "0x3469840",
      "l1BlobBaseFeeScalar": "0xdbba0",
      "l1Fee": "0x2b080aee1",
      "l1GasPrice": "0x3fab482c",
      "l1GasUsed": "0x7e6"
    },
    {
      "status": "0x1",
      "cumulativeGasUsed": "0x8901d",
      "logs": [
        {
          "address": "0x42013a72753f6ec28e27582d4cdb8425b44fd311",
          "topics": [
            "0x5f0eab8057630ba7676c49b4f21a0231414e79474595be8e4c432fbf6bf0f4e7",
            "0x0000000000000000000000000000000000000000000000000000000000000001",
            "0x000000000000000000000000bb9149f6a9f685e58b008626293788fafdc879b9",
            "0x00000000000000000000000025f75573799a3aa37760d6be4b862aca70599b49"
          ],
          "data": "0x000000000000000000000000000000000000000000000000000000000000004000000000000000000000000000000000000000000000000000000000000000a0000000000000000000000000000000000000000000000000000000000000002102e9021e5fdda99334a2a44d6aab4c6357e6d69800ebdd8a63488e5b2e0fa91929000000000000000000000000000000000000000000000000000000000000000000000000000000000000000000000000000000000000000000000000000035f200000000000000000000000000000000000000000000000000000000000000000000000000000000000000000de0b6b3a76400000000000000000000000000",
          "blockHash": "0x3a5ccf2551067c1b1f069e67b48e02a3737dbd977123afc4a918ed5153cbdf6a",
          "blockNumber": "0x291ce66",
          "blockTimestamp": "0x697f7bb2",
          "transactionHash": "0x783837e9ee01398a786dbefc6b4216b993e89690602a4c50533d6fb4e4692d1f",
          "transactionIndex": "0x8",
          "logIndex": "0x4",
          "removed": false
        }
      ],
      "logsBloom": "0x00000000000000000000000000000000000000004000000000000000000000000000000000000000000000000000000000000000000000000000020000040000000002000000000000000000000000000000000000040000000000000000000000000000000000000000000000000000000000000008000000000000000000000001000002000000000000000400000000000000000000000000000000000000000000000000000000000000400000010000000000000000000000000000000000000000000000000000000000000000000200000000000004000000400040000000000000000000000000000000000000000000000000000000000000000000",
      "type": "0x2",
      "transactionHash": "0x783837e9ee01398a786dbefc6b4216b993e89690602a4c50533d6fb4e4692d1f",
      "transactionIndex": "0x8",
      "blockHash": "0x3a5ccf2551067c1b1f069e67b48e02a3737dbd977123afc4a918ed5153cbdf6a",
      "blockNumber": "0x291ce66",
      "gasUsed": "0x6ce3",
      "effectiveGasPrice": "0x7a121",
      "blobGasUsed": "0xea60",
      "from": "0x25f75573799a3aa37760d6be4b862aca70599b49",
      "to": "0x42013a72753f6ec28e27582d4cdb8425b44fd311",
      "contractAddress": null,
      "daFootprintGasScalar": "0x190",
      "l1BaseFeeScalar": "0x7d0",
      "l1BlobBaseFee": "0x3469840",
      "l1BlobBaseFeeScalar": "0xdbba0",
      "l1Fee": "0x2ef0f361e",
      "l1GasPrice": "0x3fab482c",
      "l1GasUsed": "0x96a"
    }
  ],
  "libraries": [],
  "pending": [],
  "returns": {},
  "timestamp": 1769962417599,
  "chain": 1301,
  "commit": "c4c4ac2"
}